{
  "contractName": "Campaign",
  "abi": [
    {
      "inputs": [
        {
          "internalType": "uint256",
          "name": "_minimumDonation",
          "type": "uint256"
        },
        {
          "internalType": "uint256",
          "name": "_duration",
          "type": "uint256"
        },
        {
          "internalType": "address",
          "name": "_creator",
          "type": "address"
        },
        {
          "internalType": "string",
          "name": "_name",
          "type": "string"
        },
        {
          "internalType": "string",
          "name": "_product",
          "type": "string"
        }
      ],
      "stateMutability": "nonpayable",
      "type": "constructor"
    },
    {
      "anonymous": false,
      "inputs": [],
      "name": "CamapignRequestFinalized",
      "type": "event"
    },
    {
      "anonymous": false,
      "inputs": [],
      "name": "CampaignRequestApproved",
      "type": "event"
    },
    {
      "anonymous": false,
      "inputs": [
        {
          "indexed": false,
          "internalType": "address",
          "name": "receiver",
          "type": "address"
        },
        {
          "indexed": false,
          "internalType": "uint256",
          "name": "amount",
          "type": "uint256"
        }
      ],
      "name": "CampaignRequestCreated",
      "type": "event"
    },
    {
      "anonymous": false,
      "inputs": [
        {
          "indexed": false,
          "internalType": "address",
          "name": "sender",
          "type": "address"
        },
        {
          "indexed": false,
          "internalType": "address",
          "name": "this",
          "type": "address"
        },
        {
          "indexed": false,
          "internalType": "uint256",
          "name": "amount",
          "type": "uint256"
        }
      ],
      "name": "ContributionToCampaign",
      "type": "event"
    },
    {
      "inputs": [],
      "name": "getManager",
      "outputs": [
        {
          "internalType": "address",
          "name": "",
          "type": "address"
        }
      ],
      "stateMutability": "view",
      "type": "function"
    },
    {
      "inputs": [],
      "name": "getCampaignName",
      "outputs": [
        {
          "internalType": "string",
          "name": "",
          "type": "string"
        }
      ],
      "stateMutability": "view",
      "type": "function"
    },
    {
      "inputs": [],
      "name": "getCampaignProduct",
      "outputs": [
        {
          "internalType": "string",
          "name": "",
          "type": "string"
        }
      ],
      "stateMutability": "view",
      "type": "function"
    },
    {
      "inputs": [],
      "name": "getMinimumDonation",
      "outputs": [
        {
          "internalType": "uint256",
          "name": "",
          "type": "uint256"
        }
      ],
      "stateMutability": "view",
      "type": "function"
    },
    {
      "inputs": [],
      "name": "getCampaignRequests",
      "outputs": [
        {
          "components": [
            {
              "internalType": "uint256",
              "name": "id",
              "type": "uint256"
            },
            {
              "internalType": "string",
              "name": "description",
              "type": "string"
            },
            {
              "internalType": "uint256",
              "name": "amount",
              "type": "uint256"
            },
            {
              "internalType": "address payable",
              "name": "recipient",
              "type": "address"
            },
            {
              "internalType": "bool",
              "name": "complete",
              "type": "bool"
            },
            {
              "internalType": "uint256",
              "name": "approvalCount",
              "type": "uint256"
            }
          ],
          "internalType": "struct Campaign.Request[]",
          "name": "",
          "type": "tuple[]"
        }
      ],
      "stateMutability": "view",
      "type": "function"
    },
    {
      "inputs": [],
      "name": "getBackedBy",
      "outputs": [
        {
          "internalType": "uint256",
          "name": "",
          "type": "uint256"
        }
      ],
      "stateMutability": "view",
      "type": "function"
    },
    {
      "inputs": [],
      "name": "getCreatedDate",
      "outputs": [
        {
          "internalType": "uint256",
          "name": "",
          "type": "uint256"
        }
      ],
      "stateMutability": "view",
      "type": "function"
    },
    {
      "inputs": [],
      "name": "getLastDate",
      "outputs": [
        {
          "internalType": "uint256",
          "name": "",
          "type": "uint256"
        }
      ],
      "stateMutability": "view",
      "type": "function"
    },
    {
      "inputs": [],
      "name": "getContributions",
      "outputs": [
        {
          "internalType": "uint256",
          "name": "",
          "type": "uint256"
        }
      ],
      "stateMutability": "view",
      "type": "function"
    },
    {
      "inputs": [],
      "name": "contribute",
      "outputs": [],
      "stateMutability": "payable",
      "type": "function"
    },
    {
      "inputs": [
        {
          "internalType": "string",
          "name": "_description",
          "type": "string"
        },
        {
          "internalType": "uint256",
          "name": "_amount",
          "type": "uint256"
        },
        {
          "internalType": "address payable",
          "name": "_recipient",
          "type": "address"
        }
      ],
      "name": "createRequest",
      "outputs": [],
      "stateMutability": "nonpayable",
      "type": "function"
    },
    {
      "inputs": [
        {
          "internalType": "uint256",
          "name": "_index",
          "type": "uint256"
        }
      ],
      "name": "approveRequest",
      "outputs": [],
      "stateMutability": "nonpayable",
      "type": "function"
    },
    {
      "inputs": [
        {
          "internalType": "uint256",
          "name": "_index",
          "type": "uint256"
        }
      ],
      "name": "finalizeRequest",
      "outputs": [],
      "stateMutability": "nonpayable",
      "type": "function"
    }
  ],
  "bytecode": "0x60806040523480156200001157600080fd5b5060405162001ba638038062001ba68339818101604052810190620000379190620001fb565b826000806101000a81548173ffffffffffffffffffffffffffffffffffffffff021916908373ffffffffffffffffffffffffffffffffffffffff16021790555081600190805190602001906200008f929190620000cb565b508060029080519060200190620000a8929190620000cb565b5084600381905550426007819055508342016008819055505050505050620003b2565b828054600181600116156101000203166002900490600052602060002090601f016020900481019282601f106200010e57805160ff19168380011785556200013f565b828001600101855582156200013f579182015b828111156200013e57825182559160200191906001019062000121565b5b5090506200014e919062000152565b5090565b5b808211156200016d57600081600090555060010162000153565b5090565b60008151905062000182816200037e565b92915050565b600082601f8301126200019a57600080fd5b8151620001b1620001ab82620002dd565b620002af565b91508082526020830160208301858383011115620001ce57600080fd5b620001db83828462000348565b50505092915050565b600081519050620001f58162000398565b92915050565b600080600080600060a086880312156200021457600080fd5b60006200022488828901620001e4565b95505060206200023788828901620001e4565b94505060406200024a8882890162000171565b935050606086015167ffffffffffffffff8111156200026857600080fd5b620002768882890162000188565b925050608086015167ffffffffffffffff8111156200029457600080fd5b620002a28882890162000188565b9150509295509295909350565b6000604051905081810181811067ffffffffffffffff82111715620002d357600080fd5b8060405250919050565b600067ffffffffffffffff821115620002f557600080fd5b601f19601f8301169050602081019050919050565b600062000317826200031e565b9050919050565b600073ffffffffffffffffffffffffffffffffffffffff82169050919050565b6000819050919050565b60005b83811015620003685780820151818401526020810190506200034b565b8381111562000378576000848401525b50505050565b62000389816200030a565b81146200039557600080fd5b50565b620003a3816200033e565b8114620003af57600080fd5b50565b6117e480620003c26000396000f3fe6080604052600436106100c25760003560e01c8063885e7c621161007f578063d76a993611610059578063d76a993614610246578063d7bb99ba14610271578063d7d1bbdb1461027b578063dda0a81a146102a4576100c2565b8063885e7c62146101c75780638a9cfd55146101f2578063d50095841461021b576100c2565b8063028f696c146100c757806303441006146100f257806328aea7351461011b5780633612baed1461014657806356571fc3146101715780636166dcf91461019c575b600080fd5b3480156100d357600080fd5b506100dc6102cf565b6040516100e99190611479565b60405180910390f35b3480156100fe57600080fd5b5061011960048036038101906101149190610ee2565b61045f565b005b34801561012757600080fd5b50610130610687565b60405161013d91906115bd565b60405180910390f35b34801561015257600080fd5b5061015b610691565b604051610168919061149b565b60405180910390f35b34801561017d57600080fd5b50610186610733565b60405161019391906115bd565b60405180910390f35b3480156101a857600080fd5b506101b161073d565b6040516101be91906115bd565b60405180910390f35b3480156101d357600080fd5b506101dc610747565b6040516101e9919061149b565b60405180910390f35b3480156101fe57600080fd5b5061021960048036038101906102149190610e7b565b6107e9565b005b34801561022757600080fd5b506102306109a8565b60405161023d919061145e565b60405180910390f35b34801561025257600080fd5b5061025b6109d1565b60405161026891906115bd565b60405180910390f35b6102796109db565b005b34801561028757600080fd5b506102a2600480360381019061029d9190610ee2565b610ad1565b005b3480156102b057600080fd5b506102b9610ca3565b6040516102c691906115bd565b60405180910390f35b60606004805480602002602001604051908101604052809291908181526020016000905b8282101561045657838290600052602060002090600502016040518060c001604052908160008201548152602001600182018054600181600116156101000203166002900480601f0160208091040260200160405190810160405280929190818152602001828054600181600116156101000203166002900480156103b95780601f1061038e576101008083540402835291602001916103b9565b820191906000526020600020905b81548152906001019060200180831161039c57829003601f168201915b50505050508152602001600282015481526020016003820160009054906101000a900473ffffffffffffffffffffffffffffffffffffffff1673ffffffffffffffffffffffffffffffffffffffff1673ffffffffffffffffffffffffffffffffffffffff1681526020016003820160149054906101000a900460ff16151515158152602001600482015481525050815260200190600101906102f3565b50505050905090565b60008054906101000a900473ffffffffffffffffffffffffffffffffffffffff1673ffffffffffffffffffffffffffffffffffffffff163373ffffffffffffffffffffffffffffffffffffffff16146104ed576040517f08c379a00000000000000000000000000000000000000000000000000000000081526004016104e4906114dd565b60405180910390fd5b6000600482815481106104fc57fe5b906000526020600020906005020190508060030160149054906101000a900460ff161561055e576040517f08c379a00000000000000000000000000000000000000000000000000000000081526004016105559061157d565b60405180910390fd5b60026006548161056a57fe5b048160040154116105b0576040517f08c379a00000000000000000000000000000000000000000000000000000000081526004016105a79061155d565b60405180910390fd5b80600201544710156105f7576040517f08c379a00000000000000000000000000000000000000000000000000000000081526004016105ee9061159d565b60405180910390fd5b60018160030160146101000a81548160ff0219169083151502179055508060030160009054906101000a900473ffffffffffffffffffffffffffffffffffffffff1673ffffffffffffffffffffffffffffffffffffffff166108fc82600201549081150290604051600060405180830381858888f19350505050158015610682573d6000803e3d6000fd5b505050565b6000600754905090565b606060028054600181600116156101000203166002900480601f0160208091040260200160405190810160405280929190818152602001828054600181600116156101000203166002900480156107295780601f106106fe57610100808354040283529160200191610729565b820191906000526020600020905b81548152906001019060200180831161070c57829003601f168201915b5050505050905090565b6000600854905090565b6000600654905090565b606060018054600181600116156101000203166002900480601f0160208091040260200160405190810160405280929190818152602001828054600181600116156101000203166002900480156107df5780601f106107b4576101008083540402835291602001916107df565b820191906000526020600020905b8154815290600101906020018083116107c257829003601f168201915b5050505050905090565b60008054906101000a900473ffffffffffffffffffffffffffffffffffffffff1673ffffffffffffffffffffffffffffffffffffffff163373ffffffffffffffffffffffffffffffffffffffff1614610877576040517f08c379a000000000000000000000000000000000000000000000000000000000815260040161086e906114dd565b60405180910390fd5b61087f610d12565b6040518060c00160405280610895868686610cab565b81526020018581526020018481526020018373ffffffffffffffffffffffffffffffffffffffff168152602001600015158152602001600081525090506004819080600181540180825580915050600190039060005260206000209060050201600090919091909150600082015181600001556020820151816001019080519060200190610924929190610d60565b506040820151816002015560608201518160030160006101000a81548173ffffffffffffffffffffffffffffffffffffffff021916908373ffffffffffffffffffffffffffffffffffffffff16021790555060808201518160030160146101000a81548160ff02191690831515021790555060a08201518160040155505050505050565b60008060009054906101000a900473ffffffffffffffffffffffffffffffffffffffff16905090565b6000600354905090565b600854421115610a20576040517f08c379a0000000000000000000000000000000000000000000000000000000008152600401610a179061151d565b60405180910390fd5b600354341015610a65576040517f08c379a0000000000000000000000000000000000000000000000000000000008152600401610a5c906114bd565b60405180910390fd5b6001600560003373ffffffffffffffffffffffffffffffffffffffff1673ffffffffffffffffffffffffffffffffffffffff16815260200190815260200160002060006101000a81548160ff021916908315150217905550600660008154809291906001019190505550565b600060048281548110610ae057fe5b90600052602060002090600502019050600560003373ffffffffffffffffffffffffffffffffffffffff1673ffffffffffffffffffffffffffffffffffffffff16815260200190815260200160002060009054906101000a900460ff16610b7c576040517f08c379a0000000000000000000000000000000000000000000000000000000008152600401610b73906114fd565b60405180910390fd5b600960008260000154815260200190815260200160002060003373ffffffffffffffffffffffffffffffffffffffff1673ffffffffffffffffffffffffffffffffffffffff16815260200190815260200160002060009054906101000a900460ff1615610c1e576040517f08c379a0000000000000000000000000000000000000000000000000000000008152600401610c159061153d565b60405180910390fd5b6001600960008360000154815260200190815260200160002060003373ffffffffffffffffffffffffffffffffffffffff1673ffffffffffffffffffffffffffffffffffffffff16815260200190815260200160002060006101000a81548160ff02191690831515021790555080600401600081548092919060010191905055505050565b600047905090565b60008082604051602001610cbf919061142c565b6040516020818303038152906040528051906020012060001c8486604051602001610cea9190611447565b6040516020818303038152906040528051906020012060001c01019050809150509392505050565b6040518060c00160405280600081526020016060815260200160008152602001600073ffffffffffffffffffffffffffffffffffffffff168152602001600015158152602001600081525090565b828054600181600116156101000203166002900490600052602060002090601f016020900481019282601f10610da157805160ff1916838001178555610dcf565b82800160010185558215610dcf579182015b82811115610dce578251825591602001919060010190610db3565b5b509050610ddc9190610de0565b5090565b5b80821115610df9576000816000905550600101610de1565b5090565b600081359050610e0c81611780565b92915050565b600082601f830112610e2357600080fd5b8135610e36610e3182611605565b6115d8565b91508082526020830160208301858383011115610e5257600080fd5b610e5d8382846116fc565b50505092915050565b600081359050610e7581611797565b92915050565b600080600060608486031215610e9057600080fd5b600084013567ffffffffffffffff811115610eaa57600080fd5b610eb686828701610e12565b9350506020610ec786828701610e66565b9250506040610ed886828701610dfd565b9150509250925092565b600060208284031215610ef457600080fd5b6000610f0284828501610e66565b91505092915050565b6000610f178383611385565b905092915050565b610f28816116b4565b82525050565b610f37816116a2565b82525050565b610f4e610f49826116a2565b61173e565b82525050565b6000610f5f82611641565b610f698185611664565b935083602082028501610f7b85611631565b8060005b85811015610fb75784840389528151610f988582610f0b565b9450610fa383611657565b925060208a01995050600181019050610f7f565b50829750879550505050505092915050565b610fd2816116c6565b82525050565b6000610fe38261164c565b610fed8185611675565b9350610ffd81856020860161170b565b61100681611762565b840191505092915050565b600061101c8261164c565b6110268185611686565b935061103681856020860161170b565b61103f81611762565b840191505092915050565b60006110558261164c565b61105f8185611697565b935061106f81856020860161170b565b80840191505092915050565b6000611088602183611686565b91507f496e6372656173652074686520636f6e747269627574696f6e20616d6f756e7460008301527f2e000000000000000000000000000000000000000000000000000000000000006020830152604082019050919050565b60006110ee602483611686565b91507f4f6e6c79206d616e616765722063616e2063616c6c20746869732066756e637460008301527f696f6e2e000000000000000000000000000000000000000000000000000000006020830152604082019050919050565b6000611154602783611686565b91507f546f20617070726f7665206120726571756573742c20636f6e7472696275746560008301527f2066697273742e000000000000000000000000000000000000000000000000006020830152604082019050919050565b60006111ba601583611686565b91507f43616d706169676e2068617320657870697265642e00000000000000000000006000830152602082019050919050565b60006111fa602783611686565b91507f596f75206861766520616c726561647920617070726f7665642074686973207260008301527f6571756573742e000000000000000000000000000000000000000000000000006020830152604082019050919050565b6000611260603383611686565b91507f4e6f7420656e6f75676820636f6e7472696275746f727320686176652061707060008301527f726f766564207468697320726571756573742e000000000000000000000000006020830152604082019050919050565b60006112c6602883611686565b91507f5468697320726571756573742068617320616c7265616479206265656e20636f60008301527f6d706c657465642e0000000000000000000000000000000000000000000000006020830152604082019050919050565b600061132c603183611686565b91507f4e6f7420656e6f75676820636f6e747269627574696f6e7320746f207061792060008301527f666f72207468697320726571756573742e0000000000000000000000000000006020830152604082019050919050565b600060c08301600083015161139d600086018261140e565b50602083015184820360208601526113b58282610fd8565b91505060408301516113ca604086018261140e565b5060608301516113dd6060860182610f1f565b5060808301516113f06080860182610fc9565b5060a083015161140360a086018261140e565b508091505092915050565b611417816116f2565b82525050565b611426816116f2565b82525050565b60006114388284610f3d565b60148201915081905092915050565b6000611453828461104a565b915081905092915050565b60006020820190506114736000830184610f2e565b92915050565b600060208201905081810360008301526114938184610f54565b905092915050565b600060208201905081810360008301526114b58184611011565b905092915050565b600060208201905081810360008301526114d68161107b565b9050919050565b600060208201905081810360008301526114f6816110e1565b9050919050565b6000602082019050818103600083015261151681611147565b9050919050565b60006020820190508181036000830152611536816111ad565b9050919050565b60006020820190508181036000830152611556816111ed565b9050919050565b6000602082019050818103600083015261157681611253565b9050919050565b60006020820190508181036000830152611596816112b9565b9050919050565b600060208201905081810360008301526115b68161131f565b9050919050565b60006020820190506115d2600083018461141d565b92915050565b6000604051905081810181811067ffffffffffffffff821117156115fb57600080fd5b8060405250919050565b600067ffffffffffffffff82111561161c57600080fd5b601f19601f8301169050602081019050919050565b6000819050602082019050919050565b600081519050919050565b600081519050919050565b6000602082019050919050565b600082825260208201905092915050565b600082825260208201905092915050565b600082825260208201905092915050565b600081905092915050565b60006116ad826116d2565b9050919050565b60006116bf826116d2565b9050919050565b60008115159050919050565b600073ffffffffffffffffffffffffffffffffffffffff82169050919050565b6000819050919050565b82818337600083830152505050565b60005b8381101561172957808201518184015260208101905061170e565b83811115611738576000848401525b50505050565b600061174982611750565b9050919050565b600061175b82611773565b9050919050565b6000601f19601f8301169050919050565b60008160601b9050919050565b611789816116b4565b811461179457600080fd5b50565b6117a0816116f2565b81146117ab57600080fd5b5056fea264697066735822122081da4291c6b598ed24276d6c529c46ceb4ab449a56f034cefbd19cac899ee72964736f6c63430007000033",
  "immutableReferences": {},
  "source": "//SPDX-License-Identifier: MIT\npragma solidity 0.7.0;\npragma experimental ABIEncoderV2;\n\ncontract Campaign {\n\n    struct Request {\n        uint256 id;\n        string description;\n        uint256 amount;\n        address payable recipient;\n        bool complete;\n        uint256 approvalCount;\n    }\n\n    address internal manager;\n    string internal campaignName;\n    string internal campaignProduct;\n    uint256 internal minimumDonation;\n    Request[] internal requests;\n    mapping(address => bool) internal canApprove;\n    uint256 internal backedBy;\n    uint256 internal createdDate;\n    uint256 internal lastDate;\n    mapping(uint256 => mapping(address => bool)) hasApproved;\n\n    event ContributionToCampaign(address sender, address this, uint256 amount);\n    event CampaignRequestCreated(address receiver, uint256 amount);\n    event CampaignRequestApproved();\n    event CamapignRequestFinalized();\n\n\n    modifier onlyManager() {\n        require(msg.sender == manager, 'Only manager can call this function.');\n        _;\n    }\n\n    constructor(uint256 _minimumDonation, uint256 _duration, address _creator, string memory _name, string memory _product) {\n        manager = _creator;\n        campaignName = _name;\n        campaignProduct = _product;\n        minimumDonation = _minimumDonation;\n        createdDate = block.timestamp;\n        lastDate = block.timestamp + _duration;\n    }\n\n    function getManager() public view returns (address) {\n        return manager;\n    }\n\n    function getCampaignName() public view returns (string memory) {\n        return campaignName;\n    }\n\n    function getCampaignProduct() public view returns (string memory) {\n        return campaignProduct;\n    }\n\n    function getMinimumDonation() public view returns (uint256) {\n        return minimumDonation;\n    }\n\n    function getCampaignRequests() public view returns(Request[] memory) {\n        return requests;\n    }\n\n    function getBackedBy() public view returns (uint256) {\n        return backedBy;\n    }\n\n    function getCreatedDate() public view returns (uint256) {\n        return createdDate;\n    }\n\n    function getLastDate() public view returns (uint256) {\n        return lastDate;\n    }\n    \n    function getContributions() public view returns (uint256) {\n        return address(this).balance;\n    }\n    \n    function createRequestId(string memory _description, uint256 _amount, address _recipient) internal pure returns (uint256) {\n        uint256 id = uint256(keccak256(abi.encodePacked(_description))) + \n                        _amount +\n                        uint256(keccak256(abi.encodePacked(_recipient)));\n        \n        return id;\n    }\n\n    function contribute() public payable {\n        require(block.timestamp <= lastDate, 'Campaign has expired.');\n        require(msg.value >= minimumDonation, 'Increase the contribution amount.');\n        canApprove[msg.sender] = true;\n        backedBy++;\n    }\n\n    function createRequest(string memory _description, uint256 _amount, address payable _recipient) public onlyManager {\n        Request memory newRequest = Request({\n            id: createRequestId(_description, _amount, _recipient),\n            description: _description,\n            amount: _amount,\n            recipient: _recipient,\n            complete: false,\n            approvalCount: 0\n        });\n\n        requests.push(newRequest);\n    }\n\n    function approveRequest(uint256 _index) public {\n        Request storage myRequest = requests[_index];\n\n        require(canApprove[msg.sender], 'To approve a request, contribute first.');\n        require(!hasApproved[myRequest.id][msg.sender], 'You have already approved this request.');\n\n        hasApproved[myRequest.id][msg.sender] = true;\n        myRequest.approvalCount++;\n    }\n\n    function finalizeRequest(uint256 _index) public onlyManager {\n        Request storage myRequest = requests[_index];\n\n        require(!myRequest.complete, 'This request has already been completed.');\n        require(myRequest.approvalCount > backedBy / 2, 'Not enough contributors have approved this request.');\n        require(address(this).balance >= myRequest.amount, 'Not enough contributions to pay for this request.');\n\n        myRequest.complete = true;\n        myRequest.recipient.transfer(myRequest.amount);\n    }\n\n}\n",
  "sourcePath": "D:\\dhruv\\Desktop\\cc\\src\\contracts\\Campaign.sol",
  "compiler": {
    "name": "solc",
    "version": "0.7.0+commit.9e61f92b.Emscripten.clang"
  },
  "schemaVersion": "3.3.2",
  "updatedAt": "2020-12-10T17:23:57.386Z",
  "devdoc": {
    "kind": "dev",
    "methods": {},
    "version": 1
  },
  "userdoc": {
    "kind": "user",
    "methods": {},
    "version": 1
  }
}