{
  "contractName": "Campaign",
  "abi": [
    {
      "inputs": [
        {
          "internalType": "uint256",
          "name": "_minimumDonation",
          "type": "uint256"
        },
        {
          "internalType": "uint256",
          "name": "_duration",
          "type": "uint256"
        },
        {
          "internalType": "address",
          "name": "_creator",
          "type": "address"
        },
        {
          "internalType": "string",
          "name": "_name",
          "type": "string"
        },
        {
          "internalType": "string",
          "name": "_product",
          "type": "string"
        }
      ],
      "stateMutability": "nonpayable",
      "type": "constructor"
    },
    {
      "anonymous": false,
      "inputs": [
        {
          "indexed": false,
          "internalType": "uint256",
          "name": "requestId",
          "type": "uint256"
        }
      ],
      "name": "CamapignRequestFinalized",
      "type": "event"
    },
    {
      "anonymous": false,
      "inputs": [
        {
          "indexed": false,
          "internalType": "uint256",
          "name": "requestId",
          "type": "uint256"
        }
      ],
      "name": "CampaignRequestApproved",
      "type": "event"
    },
    {
      "anonymous": false,
      "inputs": [
        {
          "indexed": false,
          "internalType": "address",
          "name": "receiver",
          "type": "address"
        },
        {
          "indexed": false,
          "internalType": "uint256",
          "name": "amount",
          "type": "uint256"
        }
      ],
      "name": "CampaignRequestCreated",
      "type": "event"
    },
    {
      "anonymous": false,
      "inputs": [
        {
          "indexed": false,
          "internalType": "address",
          "name": "sender",
          "type": "address"
        },
        {
          "indexed": false,
          "internalType": "address",
          "name": "this",
          "type": "address"
        },
        {
          "indexed": false,
          "internalType": "uint256",
          "name": "amount",
          "type": "uint256"
        }
      ],
      "name": "ContributionToCampaign",
      "type": "event"
    },
    {
      "inputs": [],
      "name": "getCampaignDetails",
      "outputs": [
        {
          "internalType": "address",
          "name": "",
          "type": "address"
        },
        {
          "internalType": "string",
          "name": "",
          "type": "string"
        },
        {
          "internalType": "string",
          "name": "",
          "type": "string"
        },
        {
          "internalType": "uint256",
          "name": "",
          "type": "uint256"
        },
        {
          "components": [
            {
              "internalType": "uint256",
              "name": "id",
              "type": "uint256"
            },
            {
              "internalType": "string",
              "name": "description",
              "type": "string"
            },
            {
              "internalType": "uint256",
              "name": "amount",
              "type": "uint256"
            },
            {
              "internalType": "address payable",
              "name": "recipient",
              "type": "address"
            },
            {
              "internalType": "bool",
              "name": "complete",
              "type": "bool"
            },
            {
              "internalType": "uint256",
              "name": "approvalCount",
              "type": "uint256"
            }
          ],
          "internalType": "struct Campaign.Request[]",
          "name": "",
          "type": "tuple[]"
        },
        {
          "internalType": "uint256",
          "name": "",
          "type": "uint256"
        },
        {
          "internalType": "uint256",
          "name": "",
          "type": "uint256"
        },
        {
          "internalType": "uint256",
          "name": "",
          "type": "uint256"
        },
        {
          "internalType": "uint256",
          "name": "",
          "type": "uint256"
        }
      ],
      "stateMutability": "view",
      "type": "function"
    },
    {
      "inputs": [],
      "name": "contribute",
      "outputs": [],
      "stateMutability": "payable",
      "type": "function"
    },
    {
      "inputs": [
        {
          "internalType": "string",
          "name": "_description",
          "type": "string"
        },
        {
          "internalType": "uint256",
          "name": "_amount",
          "type": "uint256"
        },
        {
          "internalType": "address payable",
          "name": "_recipient",
          "type": "address"
        }
      ],
      "name": "createRequest",
      "outputs": [],
      "stateMutability": "nonpayable",
      "type": "function"
    },
    {
      "inputs": [
        {
          "internalType": "uint256",
          "name": "_index",
          "type": "uint256"
        }
      ],
      "name": "approveRequest",
      "outputs": [],
      "stateMutability": "nonpayable",
      "type": "function"
    },
    {
      "inputs": [
        {
          "internalType": "uint256",
          "name": "_index",
          "type": "uint256"
        }
      ],
      "name": "finalizeRequest",
      "outputs": [],
      "stateMutability": "nonpayable",
      "type": "function"
    }
  ],
  "bytecode": "0x60806040523480156200001157600080fd5b5060405162001cc638038062001cc68339818101604052810190620000379190620001fb565b826000806101000a81548173ffffffffffffffffffffffffffffffffffffffff021916908373ffffffffffffffffffffffffffffffffffffffff16021790555081600190805190602001906200008f929190620000cb565b508060029080519060200190620000a8929190620000cb565b5084600381905550426008819055508342016009819055505050505050620003b2565b828054600181600116156101000203166002900490600052602060002090601f016020900481019282601f106200010e57805160ff19168380011785556200013f565b828001600101855582156200013f579182015b828111156200013e57825182559160200191906001019062000121565b5b5090506200014e919062000152565b5090565b5b808211156200016d57600081600090555060010162000153565b5090565b60008151905062000182816200037e565b92915050565b600082601f8301126200019a57600080fd5b8151620001b1620001ab82620002dd565b620002af565b91508082526020830160208301858383011115620001ce57600080fd5b620001db83828462000348565b50505092915050565b600081519050620001f58162000398565b92915050565b600080600080600060a086880312156200021457600080fd5b60006200022488828901620001e4565b95505060206200023788828901620001e4565b94505060406200024a8882890162000171565b935050606086015167ffffffffffffffff8111156200026857600080fd5b620002768882890162000188565b925050608086015167ffffffffffffffff8111156200029457600080fd5b620002a28882890162000188565b9150509295509295909350565b6000604051905081810181811067ffffffffffffffff82111715620002d357600080fd5b8060405250919050565b600067ffffffffffffffff821115620002f557600080fd5b601f19601f8301169050602081019050919050565b600062000317826200031e565b9050919050565b600073ffffffffffffffffffffffffffffffffffffffff82169050919050565b6000819050919050565b60005b83811015620003685780820151818401526020810190506200034b565b8381111562000378576000848401525b50505050565b62000389816200030a565b81146200039557600080fd5b50565b620003a3816200033e565b8114620003af57600080fd5b50565b61190480620003c26000396000f3fe60806040526004361061004a5760003560e01c8063034410061461004f5780630c611f24146100785780638a9cfd55146100ab578063d7bb99ba146100d4578063d7d1bbdb146100de575b600080fd5b34801561005b57600080fd5b5061007660048036038101906100719190610ee0565b610107565b005b34801561008457600080fd5b5061008d61036a565b6040516100a2999897969594939291906114e5565b60405180910390f35b3480156100b757600080fd5b506100d260048036038101906100cd9190610e79565b61068c565b005b6100dc610919565b005b3480156100ea57600080fd5b5061010560048036038101906101009190610ee0565b610a9c565b005b60008054906101000a900473ffffffffffffffffffffffffffffffffffffffff1673ffffffffffffffffffffffffffffffffffffffff163373ffffffffffffffffffffffffffffffffffffffff1614610195576040517f08c379a000000000000000000000000000000000000000000000000000000000815260040161018c906115c7565b60405180910390fd5b6000600482815481106101a457fe5b906000526020600020906005020190508060030160149054906101000a900460ff1615610206576040517f08c379a00000000000000000000000000000000000000000000000000000000081526004016101fd906115a7565b60405180910390fd5b60026007548161021257fe5b04816004015411610258576040517f08c379a000000000000000000000000000000000000000000000000000000000815260040161024f90611667565b60405180910390fd5b806002015447101561029f576040517f08c379a0000000000000000000000000000000000000000000000000000000008152600401610296906115e7565b60405180910390fd5b60018160030160146101000a81548160ff0219169083151502179055508060030160009054906101000a900473ffffffffffffffffffffffffffffffffffffffff1673ffffffffffffffffffffffffffffffffffffffff166108fc82600201549081150290604051600060405180830381858888f1935050505015801561032a573d6000803e3d6000fd5b507f8a2064076b2541149142ae74f562c2401a418691ef13ff0b482fcaa7d4a63482816000015460405161035e91906116a7565b60405180910390a15050565b60006060806000606060008060008060008054906101000a900473ffffffffffffffffffffffffffffffffffffffff1660016002600354600460075460085460095447878054600181600116156101000203166002900480601f0160208091040260200160405190810160405280929190818152602001828054600181600116156101000203166002900480156104425780601f1061041757610100808354040283529160200191610442565b820191906000526020600020905b81548152906001019060200180831161042557829003601f168201915b50505050509750868054600181600116156101000203166002900480601f0160208091040260200160405190810160405280929190818152602001828054600181600116156101000203166002900480156104de5780601f106104b3576101008083540402835291602001916104de565b820191906000526020600020905b8154815290600101906020018083116104c157829003601f168201915b5050505050965084805480602002602001604051908101604052809291908181526020016000905b8282101561066957838290600052602060002090600502016040518060c001604052908160008201548152602001600182018054600181600116156101000203166002900480601f0160208091040260200160405190810160405280929190818152602001828054600181600116156101000203166002900480156105cc5780601f106105a1576101008083540402835291602001916105cc565b820191906000526020600020905b8154815290600101906020018083116105af57829003601f168201915b50505050508152602001600282015481526020016003820160009054906101000a900473ffffffffffffffffffffffffffffffffffffffff1673ffffffffffffffffffffffffffffffffffffffff1673ffffffffffffffffffffffffffffffffffffffff1681526020016003820160149054906101000a900460ff1615151515815260200160048201548152505081526020019060010190610506565b505050509450985098509850985098509850985098509850909192939495969798565b60008054906101000a900473ffffffffffffffffffffffffffffffffffffffff1673ffffffffffffffffffffffffffffffffffffffff163373ffffffffffffffffffffffffffffffffffffffff161461071a576040517f08c379a0000000000000000000000000000000000000000000000000000000008152600401610711906115c7565b60405180910390fd5b610722610d10565b6040518060c00160405280610738868686610ca9565b81526020018581526020018481526020018373ffffffffffffffffffffffffffffffffffffffff16815260200160001515815260200160008152509050600560008260000151815260200190815260200160002060009054906101000a900460ff16156107da576040517f08c379a00000000000000000000000000000000000000000000000000000000081526004016107d190611607565b60405180910390fd5b6001600560008360000151815260200190815260200160002060006101000a81548160ff021916908315150217905550600481908060018154018082558091505060019003906000526020600020906005020160009091909190915060008201518160000155602082015181600101908051906020019061085c929190610d5e565b506040820151816002015560608201518160030160006101000a81548173ffffffffffffffffffffffffffffffffffffffff021916908373ffffffffffffffffffffffffffffffffffffffff16021790555060808201518160030160146101000a81548160ff02191690831515021790555060a0820151816004015550507fc3581065db3d1da85f694b64006462e97ecfc8450912cb4f6381103052c5567d828460405161090b9291906114bc565b60405180910390a150505050565b60095442111561095e576040517f08c379a000000000000000000000000000000000000000000000000000000000815260040161095590611647565b60405180910390fd5b6003543410156109a3576040517f08c379a000000000000000000000000000000000000000000000000000000000815260040161099a90611687565b60405180910390fd5b600660003373ffffffffffffffffffffffffffffffffffffffff1673ffffffffffffffffffffffffffffffffffffffff16815260200190815260200160002060009054906101000a900460ff16610a5f576001600660003373ffffffffffffffffffffffffffffffffffffffff1673ffffffffffffffffffffffffffffffffffffffff16815260200190815260200160002060006101000a81548160ff0219169083151502179055506007600081548092919060010191905055505b7f65c18f9e03f16c16312a711b7c242daef5e26c13beeb0c92e07bc0ec16b092b4333034604051610a9293929190611485565b60405180910390a1565b600060048281548110610aab57fe5b90600052602060002090600502019050600660003373ffffffffffffffffffffffffffffffffffffffff1673ffffffffffffffffffffffffffffffffffffffff16815260200190815260200160002060009054906101000a900460ff16610b47576040517f08c379a0000000000000000000000000000000000000000000000000000000008152600401610b3e90611587565b60405180910390fd5b600a60008260000154815260200190815260200160002060003373ffffffffffffffffffffffffffffffffffffffff1673ffffffffffffffffffffffffffffffffffffffff16815260200190815260200160002060009054906101000a900460ff1615610be9576040517f08c379a0000000000000000000000000000000000000000000000000000000008152600401610be090611627565b60405180910390fd5b6001600a60008360000154815260200190815260200160002060003373ffffffffffffffffffffffffffffffffffffffff1673ffffffffffffffffffffffffffffffffffffffff16815260200190815260200160002060006101000a81548160ff02191690831515021790555080600401600081548092919060010191905055507fd7ff726d6f4b240f5471e941cdde52c97b71c7352a8a086def55afaa373df1698160000154604051610c9d91906116a7565b60405180910390a15050565b60008082604051602001610cbd9190611453565b6040516020818303038152906040528051906020012060001c8486604051602001610ce8919061146e565b6040516020818303038152906040528051906020012060001c01019050809150509392505050565b6040518060c00160405280600081526020016060815260200160008152602001600073ffffffffffffffffffffffffffffffffffffffff168152602001600015158152602001600081525090565b828054600181600116156101000203166002900490600052602060002090601f016020900481019282601f10610d9f57805160ff1916838001178555610dcd565b82800160010185558215610dcd579182015b82811115610dcc578251825591602001919060010190610db1565b5b509050610dda9190610dde565b5090565b5b80821115610df7576000816000905550600101610ddf565b5090565b600081359050610e0a816118a0565b92915050565b600082601f830112610e2157600080fd5b8135610e34610e2f826116ef565b6116c2565b91508082526020830160208301858383011115610e5057600080fd5b610e5b83828461181c565b50505092915050565b600081359050610e73816118b7565b92915050565b600080600060608486031215610e8e57600080fd5b600084013567ffffffffffffffff811115610ea857600080fd5b610eb486828701610e10565b9350506020610ec586828701610e64565b9250506040610ed686828701610dfb565b9150509250925092565b600060208284031215610ef257600080fd5b6000610f0084828501610e64565b91505092915050565b6000610f1583836113ac565b905092915050565b610f26816117e6565b82525050565b610f358161179e565b82525050565b610f448161178c565b82525050565b610f5b610f568261178c565b61185e565b82525050565b6000610f6c8261172b565b610f76818561174e565b935083602082028501610f888561171b565b8060005b85811015610fc45784840389528151610fa58582610f09565b9450610fb083611741565b925060208a01995050600181019050610f8c565b50829750879550505050505092915050565b610fdf816117b0565b82525050565b6000610ff082611736565b610ffa818561175f565b935061100a81856020860161182b565b61101381611882565b840191505092915050565b600061102982611736565b6110338185611770565b935061104381856020860161182b565b61104c81611882565b840191505092915050565b600061106282611736565b61106c8185611781565b935061107c81856020860161182b565b80840191505092915050565b6000611095602683611770565b91507f546f20617070726f7665206120726571756573742c20636f6e7472696275746560008301527f20666972737400000000000000000000000000000000000000000000000000006020830152604082019050919050565b60006110fb602783611770565b91507f5468697320726571756573742068617320616c7265616479206265656e20636f60008301527f6d706c65746564000000000000000000000000000000000000000000000000006020830152604082019050919050565b6000611161602383611770565b91507f4f6e6c79206d616e616765722063616e2063616c6c20746869732066756e637460008301527f696f6e00000000000000000000000000000000000000000000000000000000006020830152604082019050919050565b60006111c7603083611770565b91507f4e6f7420656e6f75676820636f6e747269627574696f6e7320746f207061792060008301527f666f7220746869732072657175657374000000000000000000000000000000006020830152604082019050919050565b600061122d601683611770565b91507f5265717565737420616c726561647920657869737473000000000000000000006000830152602082019050919050565b600061126d602683611770565b91507f596f75206861766520616c726561647920617070726f7665642074686973207260008301527f65717565737400000000000000000000000000000000000000000000000000006020830152604082019050919050565b60006112d3601483611770565b91507f43616d706169676e2068617320657870697265640000000000000000000000006000830152602082019050919050565b6000611313603283611770565b91507f4e6f7420656e6f75676820636f6e7472696275746f727320686176652061707060008301527f726f7665642074686973207265717565737400000000000000000000000000006020830152604082019050919050565b6000611379602083611770565b91507f496e6372656173652074686520636f6e747269627574696f6e20616d6f756e746000830152602082019050919050565b600060c0830160008301516113c46000860182611435565b50602083015184820360208601526113dc8282610fe5565b91505060408301516113f16040860182611435565b5060608301516114046060860182610f2c565b5060808301516114176080860182610fd6565b5060a083015161142a60a0860182611435565b508091505092915050565b61143e816117dc565b82525050565b61144d816117dc565b82525050565b600061145f8284610f4a565b60148201915081905092915050565b600061147a8284611057565b915081905092915050565b600060608201905061149a6000830186610f1d565b6114a76020830185610f3b565b6114b46040830184611444565b949350505050565b60006040820190506114d16000830185610f1d565b6114de6020830184611444565b9392505050565b6000610120820190506114fb600083018c610f3b565b818103602083015261150d818b61101e565b90508181036040830152611521818a61101e565b90506115306060830189611444565b81810360808301526115428188610f61565b905061155160a0830187611444565b61155e60c0830186611444565b61156b60e0830185611444565b611579610100830184611444565b9a9950505050505050505050565b600060208201905081810360008301526115a081611088565b9050919050565b600060208201905081810360008301526115c0816110ee565b9050919050565b600060208201905081810360008301526115e081611154565b9050919050565b60006020820190508181036000830152611600816111ba565b9050919050565b6000602082019050818103600083015261162081611220565b9050919050565b6000602082019050818103600083015261164081611260565b9050919050565b60006020820190508181036000830152611660816112c6565b9050919050565b6000602082019050818103600083015261168081611306565b9050919050565b600060208201905081810360008301526116a08161136c565b9050919050565b60006020820190506116bc6000830184611444565b92915050565b6000604051905081810181811067ffffffffffffffff821117156116e557600080fd5b8060405250919050565b600067ffffffffffffffff82111561170657600080fd5b601f19601f8301169050602081019050919050565b6000819050602082019050919050565b600081519050919050565b600081519050919050565b6000602082019050919050565b600082825260208201905092915050565b600082825260208201905092915050565b600082825260208201905092915050565b600081905092915050565b6000611797826117bc565b9050919050565b60006117a9826117bc565b9050919050565b60008115159050919050565b600073ffffffffffffffffffffffffffffffffffffffff82169050919050565b6000819050919050565b60006117f1826117f8565b9050919050565b60006118038261180a565b9050919050565b6000611815826117bc565b9050919050565b82818337600083830152505050565b60005b8381101561184957808201518184015260208101905061182e565b83811115611858576000848401525b50505050565b600061186982611870565b9050919050565b600061187b82611893565b9050919050565b6000601f19601f8301169050919050565b60008160601b9050919050565b6118a98161179e565b81146118b457600080fd5b50565b6118c0816117dc565b81146118cb57600080fd5b5056fea2646970667358221220d714efecf5ca228ff615a33c7098e4cb285e08ad3af9ee88e1dc45dd8d56bff164736f6c63430007000033",
  "immutableReferences": {},
  "source": "//SPDX-License-Identifier: MIT\npragma solidity 0.7.0;\npragma experimental ABIEncoderV2;\n\ncontract Campaign {\n\n    struct Request {\n        uint256 id;\n        string description;\n        uint256 amount;\n        address payable recipient;\n        bool complete;\n        uint256 approvalCount;\n    }\n\n    address internal manager;\n    string internal campaignName;\n    string internal campaignProduct;\n    uint256 internal minimumDonation;\n    Request[] internal requests;\n    mapping(uint256 => bool) requestExists;\n    mapping(address => bool) internal canApprove;\n    uint256 internal backedBy;\n    uint256 internal createdDate;\n    uint256 internal lastDate;\n    mapping(uint256 => mapping(address => bool)) hasApproved;\n\n    event ContributionToCampaign(address sender, address this, uint256 amount);\n    event CampaignRequestCreated(address receiver, uint256 amount);\n    event CampaignRequestApproved(uint256 requestId);\n    event CamapignRequestFinalized(uint256 requestId);\n\n\n    modifier onlyManager() {\n        require(msg.sender == manager, 'Only manager can call this function');\n        _;\n    }\n\n    constructor(uint256 _minimumDonation, uint256 _duration, address _creator, string memory _name, string memory _product) {\n        manager = _creator;\n        campaignName = _name;\n        campaignProduct = _product;\n        minimumDonation = _minimumDonation;\n        createdDate = block.timestamp;\n        lastDate = block.timestamp + _duration;\n    }\n\n    function getCampaignDetails() public view \n        returns (address, string memory, string memory, uint256, Request[] memory, uint256, uint256, uint256, uint256) {\n            return (\n                manager,\n                campaignName,\n                campaignProduct,\n                minimumDonation,\n                requests,\n                backedBy,\n                createdDate,\n                lastDate,\n                address(this).balance\n            );\n    }\n    \n    function createRequestId(string memory _description, uint256 _amount, address _recipient) internal pure returns (uint256) {\n        uint256 id = uint256(keccak256(abi.encodePacked(_description))) + \n                        _amount +\n                        uint256(keccak256(abi.encodePacked(_recipient)));\n        \n        return id;\n    }\n\n    function contribute() public payable {\n        require(block.timestamp <= lastDate, 'Campaign has expired');\n        require(msg.value >= minimumDonation, 'Increase the contribution amount');\n        \n        if (!canApprove[msg.sender]) {\n            canApprove[msg.sender] = true;\n            backedBy++;\n        }\n\n        emit ContributionToCampaign(msg.sender, address(this), msg.value);\n    }\n\n    function createRequest(string memory _description, uint256 _amount, address payable _recipient) public onlyManager {\n        Request memory newRequest = Request({\n            id: createRequestId(_description, _amount, _recipient),\n            description: _description,\n            amount: _amount,\n            recipient: _recipient,\n            complete: false,\n            approvalCount: 0\n        });\n\n        require(!requestExists[newRequest.id], 'Request already exists');\n\n        requestExists[newRequest.id] = true;\n        requests.push(newRequest);\n\n        emit CampaignRequestCreated(_recipient, _amount);\n    }\n\n    function approveRequest(uint256 _index) public {\n        Request storage myRequest = requests[_index];\n\n        require(canApprove[msg.sender], 'To approve a request, contribute first');\n        require(!hasApproved[myRequest.id][msg.sender], 'You have already approved this request');\n\n        hasApproved[myRequest.id][msg.sender] = true;\n        myRequest.approvalCount++;\n\n        emit CampaignRequestApproved(myRequest.id);\n    }\n\n    function finalizeRequest(uint256 _index) public onlyManager {\n        Request storage myRequest = requests[_index];\n\n        require(!myRequest.complete, 'This request has already been completed');\n        require(myRequest.approvalCount > backedBy / 2, 'Not enough contributors have approved this request');\n        require(address(this).balance >= myRequest.amount, 'Not enough contributions to pay for this request');\n\n        myRequest.complete = true;\n        myRequest.recipient.transfer(myRequest.amount);\n\n        emit CamapignRequestFinalized(myRequest.id);\n    }\n\n}\n",
  "sourcePath": "D:\\dhruv\\Desktop\\cc\\src\\contracts\\Campaign.sol",
  "compiler": {
    "name": "solc",
    "version": "0.7.0+commit.9e61f92b.Emscripten.clang"
  },
  "schemaVersion": "3.3.2",
  "updatedAt": "2020-12-14T05:55:45.426Z",
  "networkType": "ethereum",
  "devdoc": {
    "kind": "dev",
    "methods": {},
    "version": 1
  },
  "userdoc": {
    "kind": "user",
    "methods": {},
    "version": 1
  }
}